:1080000082008293820092AA82008331820092AB26
:10801000820092AC820092AD820092AE820092AF5A
:10802000820092B0820092B1820092B2820092B33A
:10803000820092B4820092B5820092B6820092B71A
:10804000820092B8820092B9820092BA820092BBFA
:10805000820092BC820092BD820092BE820092BFDA
:10806000820092C0820092C1820092C2820092C3BA
:10807000820092C4820092C5820092C6820092C79A
:10808000008219000600808C001000008000400073
:028090002000CE
:1080920088A6082000887B02887B02891E061F04AE
:1080A2005F977B086B06FE1F07858487891E06BFC4
:1080B2000820001E041F061E021F04855B0287881B
:1080C2007B03887B03887B03887B076B04B6096B81
:1080D20005B60A6B06B60B6B078487887B05B70962
:1080E2007B06B70A7B07B70B20007B046B07846B08
:1080F20003846B03846B03848788A604200A88A602
:1081020008200588A60C200088897B04887B0489C6
:108112001E081F045F977B0A6B061F09FE1F071EBE
:10812200095C5CFE1F09858487891E06BF081E083C
:10813200BF0A200B891E06BF0C1E08BF0E20001EA0
:10814200031F071E041F08855B04878D0081368D7F
:1081520000812B878D0080AE8745050145060245CB
:10816200070387450800450901450A02450B0387B5
:108172004501054502064503078745010945020AEF
:1081820045030B8745000C45010D45020E45030FC3
:1081920087AE000020006D03260D6D0226076D01DB
:1081A20026017A6A016A026A0387BE00261E90BE11
:1081B20004260CBE0290BE0665BF0290BF0687BFB2
:1081C20004450206450307BF00BF0287A6203D0003
:1081D200260DBE01BF004503023F033A03A0085F1C
:1081E200905F992017905959B304260390B306253E
:1081F2000B72B2000624015A72B00004390339022C
:10820200390139004A2ADEBF0490BF06BE0053BFBF
:1082120000BE0253BF0287BF0092CE00BF02BE0063
:108222001C000290BE022601878D0083101C0003F1
:108232009093FE72A9000290BF0092BC0005F790D5
:10824200AE0001899372BB0006BF06855C90BE0238
:10825200905A90BF0227C220E190AE8080201193F5
:108262001C000389938D00831085928D00059093E5
:1082720090A3808C26E9878D0080925202BF08BEAF
:10828200081F01965C3F01BF02A6018D00833F20BB
:10829200EEAE07FF948D0083395D27048D00825B6B
:1082A2008D0089D2AC0083355C5C5CBF049672BBE6
:1082B200000489FEBF041E01EE02BF068587552019
:1082C2005068616E20756E67203D2020202020209E
:1082D200560049204B69636820747520203D202098
:1082E20020202020410049205068616E20756E6771
:1082F200203D202020202020410020204E6869655A
:108302007420646F203D202020202027430088F61F
:10831200B705E601B706E602B70784874D2704587A
:108322004A26FC8789858D0082790102040810ACF7
:1083320000833CAC0083265F5C879D20FD8735016E
:1083420000004FAC0083B48D0080C18D00817C4D54
:10835200270B4A27154A271F4A27292048B600AB70
:1083620080B7004F8D0083B4203BB600ABC0B7008E
:108372004F8D0083B4202EB600AB94B7004F8D0012
:1083820083B42021B600ABD4B7004F8D0083B42054
:108392001492BC0009B700A6018D0083B45F5C7221
:1083A200BB000ABF0A92BC0009A10026E48D00802E
:1083B200DD878D008092B709450008AE3E80BF027E
:1083C2005FBF008D0092863D09271835010000A687
:1083D200013500000135500002351400038D009173
:1083E2008120143F00A601350000013550000235FE
:1083F2001400038D009181B608A480A100271835CE
:10840200010000A62035000001355000023514009D
:10841200038D00918120143F00A620350000013514
:10842200500002351400038D009181B608A440A1CA
:1084320000271835010000A6103500000135500054
:1084420002351400038D00918120143F00A61035DF
:1084520000000135500002351400038D009181B6F1
:1084620008A420A100271835010000A60835000045
:108472000135500002351400038D00918120143F14
:1084820000A6083500000135500002351400038DA6
:10849200009181B608A410A100271835010000A69A
:1084A200043500000135500002351400038D00919F
:1084B2008120143F00A6043500000135500002352A
:1084C2001400038D00918135010000A602350000E1
:1084D2000135500002351400038D0091813F00A642
:1084E200023500000135500002351400038D009161
:1084F20081B608A408A100271835010000A620357E
:1085020000000135500002351400038D00918120D6
:10851200143F00A62035000001355000023514003A
:10852200038D009181B608A404A10027183501002B
:1085320000A6103500000135500002351400038DED
:1085420000918120143F00A6103500000135500033
:1085520002351400038D009181B608A402A1002700
:108562001835010000A6083500000135500002351B
:108572001400038D00918120143F00A608350000ED
:108582000135500002351400038D009181B608A414
:1085920001A100271835010000A6043500000135AD
:1085A200500002351400038D00918120143F00A673
:1085B200043500000135500002351400038D00918E
:1085C2008135010000A60235000001355000023558
:1085D2001400038D0091813F00A602350000013591
:1085E200500002351400038D009181AC008156AE1B
:1085F2003E80BF025FBF008D0092863F00A6043519
:1086020000000135500002351400038D00918135C0
:10861200010000A6083500000135500002351400A3
:10862200038D0091813F00A61035000001355000F6
:1086320002351400038D0091813F00A62035000011
:108642000135500002351400038D0091813F00A6D0
:10865200013500000135500002351400038D0091F0
:108662008135010000A602350000013550000235B7
:108672001400038D0091813F00A6023500000135F0
:10868200500002351400038D009181352800004FFF
:108692008D0083B4350C00004F8D0083B435060085
:1086A200004F8D0083B4350100004FAC0083B48DC0
:1086B2000081008D0081058D0080FB8D00817CB7DB
:1086C200045FBF0EBF0CAE00048D00816872BB0058
:1086D20002BF0292BC0001A4E9AE00048D008168D1
:1086E20072BB0002BF0292BD00017B10BA0488AEC9
:1086F20000048D00816872BB0002BF0292BC0001BF
:10870200B70184BA01AE00048D00816872BB000219
:10871200BF0292BD0001AE00068D00816872BB00EF
:1087220002BF0292BC0001A4CFAE00068D00816898
:1087320072BB0002BF0292BD0001AE00068D008135
:108742006872BB0002BF0292BC0001BA00AE000612
:108752008D00816872BB0002BF0292BD0001AE00B3
:10876200028D00816872BB0002BF0292BC0001B799
:1087720008AE00028D00816872BB0002BF024F92F8
:10878200BD0001AE00038D00816872BB0002BF0212
:1087920092BC0001A40FAE00038D00816872BB0081
:1087A20002BF0292BD0001AE00038D00816872BB60
:1087B2000002BF0292BC0001A4F0AE00038D008152
:1087C2006872BB0002BF0292BD00018D008D85AEB2
:1087D20000018D0082AA8D0081AC8D008186BE0EC3
:1087E2004F019FA4F0AE00038D00816872BB0002AE
:1087F200BF0292BD0001B60FA40F88AE00038D0028
:10880200816872BB0002BF0292BC0001B70184BA48
:1088120001AE00038D00816872BB0002BF0292BDEF
:108822000001BE0E545454549FAE00028D00816864
:1088320072BB0002BF0292BD0001AE00058D008135
:108842006872BB0002BF0292BC0001A4F3AE000535
:108852008D00816872BB0002BF0292BD0001AE00B2
:10886200058D00816872BB0002BF0292BC00011A32
:1088720011AE000572BB000ABF0A92BD00095B047B
:10888200AC00814D8D008172B704AE00048D008171
:108892005B72BB0002BF0292BC00014504013301BE
:1088A200B401AE00048D00815B72BB0002BF029274
:1088B200BD0001B600A480A1002749B600A410A102
:1088C20000270C92BC0005BA0492BD0005200F459A
:1088D2000401330192BC0005B40192BD0005AE0053
:1088E200028D00815B72BB0002BF0292BC0001BA22
:1088F20004AE00028D00815B72BB0002BF0292BD1A
:1089020000012029AE00028D00815B72BB0002BF14
:108912000292BC00014504013301B401AE00028D94
:1089220000815B72BB0002BF0292BD0001B600A4CF
:1089320040A1002726AE00038D00815B72BB0002BE
:10894200BF0292BC0001BA04AE00038D00815B72CB
:10895200BB0002BF0292BD00012029AE00038D00C0
:10896200815B72BB0002BF0292BC0001450401336D
:1089720001B401AE00038D00815B72BB0002BF0235
:1089820092BD0001B600A420A1002721AE00048DF3
:1089920000815B72BB0002BF0292BC0001BA04AE4E
:1089A200000472BB0006BF0692BD000587AE00043C
:1089B2008D00815B72BB0002BF0292BC00013304D6
:1089C200B404AE000472BB0006BF0692BD00058768
:1089D2008D0091BD35F00000A62035000001355014
:1089E2000002350A00038D00888635F00000A6409B
:1089F2003500000135500002350A00038D008886DB
:108A02008D008E188D0085F18D00834035000001A8
:108A12003582000235C000033F004F8D0083493587
:108A22000000013582000235D400033F00A6018D0B
:108A3200008349350000013582000235E800033F1A
:108A420000A6028D008349350000013582000235FF
:108A5200FC00033F00A6038D0083498D008C37354F
:108A6200F00000A6083500000135500002350F0065
:108A7200038D0088868D0091618D008B8DAEA120C3
:108A8200BF02AE0007BF008D0092863F00A61035E0
:108A920000000135500002350A00038D009181AEBD
:108AA2002710BF025FBF008D00928635010000A62D
:108AB200103500000135500002350A00038D009187
:108AC20081AE2710BF025FBF008D00928620AEB735
:108AD200023F01B602A4F0B7013D0126383D00274E
:108AE20019B602A40F5F5C8D00831E41B70041BC22
:108AF2000050C3BA00BD0050C387B602A40F5F5C2A
:108B02008D00831E41B700413300BC0050C3B40046
:108B1200BD0050C387B601A11026383D002719B603
:108B220002A40F5F5C8D00831E41B70041BC005060
:108B3200C4BA00BD0050C487B602A40F5F5C8D00AA
:108B4200831E41B700413300BC0050C4B400BD00D5
:108B520050C4873D002719B602A40F5F5C8D0083C5
:108B62001E41B70041BC0050D0BA00BD0050D087B2
:108B7200B602A40F5F5C8D00831E41B70041330033
:108B8200BC0050D0B400BD0050D0873F0090AEFF73
:108B9200FF4F5F5C8D00912D352A0005355500048D
:108BA2003588000335220002CE00103F0135110046
:108BB20000A6308D008F1D4F8D00923B352A000597
:108BC200355500043588000335220002CE00123FDD
:108BD2000135110000A6308D008F9C4F8D009254FC
:108BE200352A000535550004358800033522000278
:108BF200CE00143F0135110000A6308D00901B4FAE
:108C02008D00926DA6018D0091F035010000A60243
:108C12008D00919F35010000A6048D00919F3501C2
:108C22000000A6088D00919F9AA6018D009222A6AF
:108C320001AC00920935F00000A6103500000135A4
:108C4200500002350A00038D00888635010000A617
:108C5200083500000135500002350A00038D0090EE
:108C62009A35010000A60435000001355000023596
:108C72000A00038D00909A3500000135520002353A
:108C82003000038D008E9C35010000A6058D008A00
:108C9200D14B0C4B003F004FAEC200BF065F5CBF22
:108CA200043500000135520002353000038D008684
:108CB200B15B023F053F043F004F350000013552D2
:108CC2000002353000038D008CDEA6013500000164
:108CD2003552000235300003AC0090E88D0080C1AF
:108CE2008D00817CB706AE00068D00816872BB00E4
:108CF20002BF0292BC0001A4F8AE00068D0081689A
:108D020072BB0002BF0292BD0001B604BA00BA05EE
:108D120088AE00068D00816872BB0002BF0292BC61
:108D22000001B70184BA01AE00068D00816872BBF2
:108D32000002BF0292BD00013D062722AE00068D51
:108D420000816872BB0002BF0292BC0001AA08AE99
:108D5200000672BB000ABF0A92BD00092020AE00C5
:108D6200068D00816872BB0002BF0292BC0001A4A2
:108D7200F7AE000672BB000ABF0A92BD00098D0061
:108D820080DD878D0081005FBF02BF005FBF0ABF29
:108D920008350100063F053F04BC0050C7B706B6C0
:108DA20006A101260CAE2400BF0AAE00F4BF0820C3
:108DB2002AB606A102260AAE9470BF0A5FBF082037
:108DC2001AB606A104260CAE2400BF0AAE00F4BFF8
:108DD200082008AE8000BF0258BF00BC0050C0A4EB
:108DE20007B7055F41B60541350000013583000232
:108DF200352C000372BB0002BF0292BC0001B70413
:108E02005F41B60441BF065FBF048D0081658D00DE
:108E120081ACAC00815135F00000A60135000001A3
:108E220035500002351400038D00888635F00000AD
:108E3200A6023500000135500002351400038D00F2
:108E4200888635F00000A604350000013550000286
:108E5200351400038D00888635F00000A608350021
:108E6200000135500002351400038D00888635F06C
:108E72000000A61035000001355000023514000331
:108E82008D00888635F00000A6203500000135509F
:108E9200000235140003AC00888692BC0001B700C2
:108EA2005F5C8D00817272BB0006BF0692BC00053A
:108EB200B704AE00038D00817272BB0006BF064F7D
:108EC20092BD0005AE00028D00817272BB0006BF2A
:108ED200064F92BD0005AE00048D00817272BB0088
:108EE20006BF064F92BD0005AE00058D008172726D
:108EF200BB0006BF064F92BD0005AE00068D008185
:108F02007272BB0006BF064F92BD0005AE0007722B
:108F1200BB0002BF024F92BD000187B7069093BC0F
:108F22000052BDA4F0BD0052BDB603A40888B6022B
:108F3200A402B70284BA0288B601A40488B600A4C7
:108F420001B70084BA00B70084BA0088BC0052BDE1
:108F5200B70184BA01BD0052BDBC0052B9A48FBA98
:108F620006BD0052B9BC0052D0A4FCBD0052D0B61E
:108F720005A40288B604A401B70184BA0188BC0022
:108F820052D0B70184BA01BD0052D0934F019FBDA8
:108F92000052C6909FBD0052C787B7069093BC008F
:108FA20052BDA40FBD0052BDB603A48088B602A470
:108FB20020B70284BA0288B601A44088B600A41081
:108FC200B70084BA00B70084BA0088BC0052BDB7AB
:108FD2000184BA01BD0052BDBC0052BAA48FBA06C8
:108FE200BD0052BABC0052D0A4F3BD0052D0B605A7
:108FF200A40888B604A404B70184BA0188BC00524C
:10900200D0B70184BA01BD0052D0934F019FBD0079
:1090120052C8909FBD0052C987B7069093BC0052B8
:10902200BEA4F0BD0052BEB603A40888B602A402D4
:10903200B70284BA0288B601A40488B600A401B7B4
:109042000084BA00B70084BA0088BC0052BEB701DF
:1090520084BA01BD0052BEBC0052BBA48FBA06BD89
:109062000052BBBC0052D0A4CFBD0052D0B605A462
:109072002088B604A410B70184BA0188BC0052D07B
:10908200B70184BA01BD0052D0934F019FBD005277
:10909200CA909FBD0052CB878D008172B7043D00FC
:1090A2002721AE00038D00815B72BB0002BF0292DA
:1090B200BC0001BA04AE000372BB0006BF0692BD3B
:1090C200000587AE00038D00815B72BB0002BF0208
:1090D20092BC00013304B404AE000372BB0006BFAD
:1090E2000692BD0005874D2721AE00048D008172D6
:1090F20072BB0006BF0692BC0005A4DFAE0004727C
:10910200BB0002BF0292BD000187AE00048D008148
:109112007272BB0006BF0692BC0005AA20AE000414
:1091220072BB0002BF0292BD000187BF02B701936A
:109132004F019FBD0052C3909FBD0052C4BE024F5B
:10914200019FBD0052C1B603BD0052C2BC0052B065
:10915200A48FBA01BD0052B0B600BD0052C587351A
:10916200010000A6118D008AD135E00000A6343539
:1091720000000135500002350F0003AC008886B7AD
:10918200043D00270B92BC0001BA0492BD00018786
:10919200330492BC0001B40492BD000187B7013DC3
:1091A20000270BBC0052B5BA01BD0052B58733018E
:1091B200BC0052B5B401BD0052B587A6018D009125
:1091C200D7A6018D00929B4F8D0092A58D0092A093
:1091D200A10126F8874D270BBC0050C9AA02BD0089
:1091E20050C987BC0050C9A4FDBD0050C9874D2796
:1091F2000BBC0052B0AA80BD0052B087BC0052B076
:10920200A47FBD0052B0874D270BBC0052B0AA010B
:10921200BD0052B087BC0052B0A4FEBD0052B08760
:109222004D270BBC0052CEAA80BD0052CE87BC0097
:1092320052CEA47FBD0052CE874D270BBC0052B93F
:10924200AA08BD0052B987BC0052B9A4F7BD0052AA
:10925200B9874D270BBC0052BAAA08BD0052BA8783
:10926200BC0052BAA4F7BD0052BA874D270BBC000E
:1092720052BBAA08BD0052BB87BC0052BBA4F7BDBB
:109282000052BB8720048D008193BE00A3000026FC
:1092920005BE02A3000026EE87BD0050C887BC00B1
:1092A20050C787BD0050C0878080808080808080CA
:1092B20080808080808080808080808080808080AC
:0692C200808080808080A6
:0400000500008293E2
:00000001FF
